:100D3C00202021003F0006005B004F0066006D0084
:100D4C007D0007007F006F0077007C0039005E009B
:030D5C00790071AA
:0E0E6D00E4F594F593F596F595F5B2F5B122FE
:0E0E7B00EF1FAC0670011E4C60030080F322D6
:040DDF007F647E00AF
:100DE300AB07AA06EB1BAE0270011A4E60097FE83F
:080DF3007E03120E7B80ED224D
:100DA100D2A3C2A37FBC7E02120E7BD2A37F1E7E82
:0E0DB10000120E7BA2A3E433FF30A3FD7E00F0
:010DBF002211
:100D0500D2A3050FE50F7002050EC2A37F067E0074
:100D1500120E7BD2A3050FE50F7002050E050FE538
:100D25000F7002050EA2A392017F327E00120E7B88
:060D3500A201E4FE33FF01
:010D3B002295
:100E2E00D2A3050DC2A3050DEE4F24FF92A37F3270
:070E3E007E00120E7BD2A31F
:010E4500228A
:100CCD00E4FBFAF50C750D01F582F583120D05EFB8
:100CDD004E6017AF82AE0CE50DA807088005C33333
:100CED00CE33CED8F92BFBEE3AFAA3E58264084554
:070CFD008370D9AE02AF03C2
:010D040022CC
:020D8100A907C0
:100D8300E4FDA805E9088002C313D8FCFB7A0053ED
:0D0D93000301AF037E00120E2E0DBD08E51A
:010DA0002230
:100DC000120DA1EF4E70F97FCC120D817FB4120D80
:0E0DD00081A2A392017F0A7E00120E7BA20177
:010DDE0022F2
:100C43008F0CE50C24F6600F146011146013240359
:100C53007012E4F50C800D750C018008750C028090
:100C630003750C03120DA1EF4E70F97F4E120D8127
:100C73007FFF120D817FFF120D81E50CC43354E019
:060C8300441FFF020D8179
:100BFC00120DA1EF4E70F97FCC120D817F44120DB6
:100C0C0081120DA1EF4E70F97FCC120D817FBE12B7
:100C1C000D81120CCD8F42120CCD8F41EFFEE542AF
:100C2C00FFEE3395E0FDFC120906E4FBFA798078BF
:070C3C003D1208000209440B
:100E460075BA80E4F591F59290FE8074E0F090FE1C
:060E560082E4F0D2AF229D
:0C0E9700D20090FE817481F02000FD224A
:100E5C0090FE86EFF0D20090FE817482F02000FDAF
:010E6C002263
:0C0EA300D20090FE817483F02000FD223C
:0C0EAF00D20090FE817486F02000FD222D
:0300C300020DFB30
:100DFB00C0E0C083C08290FE82E030E606E054BFC4
:0A0E0B00F0C200D082D083D0E032A4
:0D0D6000EB25E02421F8E6FC08E6FD7E000E
:100D6D00120E97120E5C120EA3AF05120E5C120E30
:040D7D00A3020EAF10
:0E0E8900120E467D317C007F487E00020D6D0A
:100E1500E4FBEB75F002A42468FFE435F0FEE4FD85
:080E2500FC120D6D0BBB04EA89
:010E2D0022A2
:100AA100120E6D120E89120E15120DC07F0C120C52
:100AB10043120DDF7F017E00120E7B120BFC8F0BA8
:100AC1008E0A8D098C08E47BE87A03F9F8120C8907
:100AD100E47B0AFAF9F8120C897F68120D60E47B55
:100AE10064FAF9F8AF0BAE0AAD09AC08120C89E44F
:100AF1007B0AFAF9F8120C897F6A120D60E47B0A0D
:100B0100FAF9F8AF0BAE0AAD09AC08120C89E47B17
:100B11000AFAF9F8120C89EB25E02421F8E6FC0821
:100B2100E6FD7F6C7E00120D6DE47B0AFAF9F8AFE9
:100B31000BAE0AAD09AC08120C89EB25E02421F8B3
:100B4100E6FC08E6FD7F6E7E00120D6DC2807F64BB
:100B5100120DE3D280120DDFC281120DDFD281129C
:0F0B61000DDFC282120DDFD282120DDF020ABC3D
:10080000EC4D6011E8497017ED33EC3304600DE4F2
:10081000FCFFFEFD22E933E8330470F80209B01250
:10082000097B58046009E4CC248150062850090251
:1008300009BA2840030209B7C0E0EB4A7044B98006
:1008400006D0E0FB0209A6EF4E701CBD8008EBFF4E
:10085000EAFEE9FD80EBE98DF0A4FEE5F00208E98F
:10086000E9CDF9EAFEEBFFEF89F0A4FCE5F0CE89D3
:10087000F0A42EFFE435F0CD89F0A42DFEE435F090
:100880008067EF4E7005BD80D780C3EF8BF0A4ACBE
:10089000F0EE8BF0A42CFCE435F0F8EF8AF0A42CF9
:1008A000E5F038FCE433CB8DF0A42CFCE5F03BF80C
:1008B000EE8AF0A42CFCE5F038F8E433CF89F0A4FC
:1008C0002CFCE5F038CF3400CE89F0A42FFFE5F002
:1008D0003EFEE433C98DF0A42EFEE5F039CD8AF05A
:1008E000A42FFFE5F03EFEE43DFD33D0E0FB5007D2
:1008F0000BBB000F0209BAEC2CFCEF33FFEE33FE0A
:06090000ED33FD02099237
:1009060075F020800E75F010800575F0087D007E6C
:10091600007F003392D530D5031209C5EC33401061
:10092600EF33FFEE33FEED33FDEC33FCD5F0ED2275
:0E093600E5F0247EA2D513CC92E7CDCEFF22B1
:10094400EDD2E7CD33EC3392D524814006E4FFFEAB
:10095400FDFC22FCE4CFCECDCC24E0501174FF800A
:10096400EDC3CC13CCCD13CDCE13CECF13CF0470A7
:07097400F030D5DE0209C5D9
:10097B00E9D2E7C933E833F892D5EDD2E7CD33ECC2
:07098B0033FC5002B2D5223B
:10099200EC30E7100FBF000C0EBE00080DBD0004C6
:1009A2000BEB6014A2D5EB13FCED92E7FD2274FF72
:1009B200FCFDFEFF22E480F8A2D574FF13FC7D80CB
:0309C200E480EFDF
:03000000020B7080
:0C0B7000787FE4F6D8FD758142020BB7D7
:100C8900C2D5E830E70FB2D5E4C39BFBE49AFAE496
:100C990099F9E498F8EC30E717B2D5120CBF120AAB
:100CA9000FE4C39BFBE49AFAE499F9E498F880030A
:100CB900120A0F30D50DE4C39FFFE49EFEE49DFDAB
:040CC900E49CFC2289
:0E09C500C3E49FFFE49EFEE49DFDE49CFC2243
:100B7C00020AA1E493A3F8E493A34003F68001F2E4
:100B8C0008DFF48029E493A3F85407240CC8C3337A
:100B9C00C4540F4420C8834004F456800146F6DF49
:100BAC00E4800B0102040810204080900D3CE47E90
:100BBC00019360BCA3FF543F30E509541FFEE4933E
:100BCC00A360010ECF54C025E060A840B8E493A305
:100BDC00FAE493A3F8E493A3C8C582C8CAC583CA30
:100BEC00F0A3C8C582C8CAC583CADFE9DEE780BEE8
:010D5F000093
:1009D30075F008758200EF2FFFEE33FECD33CDCCDB
:1009E30033CCC58233C5829BED9AEC99E58298405E
:1009F3000CF582EE9BFEED9AFDEC99FC0FD5F0D63B
:100A0300E4CEFBE4CDFAE4CCF9A88222B800C1B964
:100A13000059BA002DEC8BF084CFCECDFCE5F0CBA2
:100A2300F97818EF2FFFEE33FEED33FDEC33FCEBDB
:100A330033FB10D703994004EB99FB0FD8E5E4F996
:100A4300FA227818EF2FFFEE33FEED33FDEC33FC83
:100A5300C933C910D7059BE99A4007EC9BFCE99A77
:100A6300F90FD8E0E4C9FAE4CCFB2275F010EF2FBC
:100A7300FFEE33FEED33FDCC33CCC833C810D707BC
:100A83009BEC9AE899400AED9BFDEC9AFCE899F8F7
:0E0A93000FD5F0DAE4CDFBE4CCFAE4C8F9228A
:00000001FF
