:10122E0046414E300046414E310046414E32004658
:10123E00414E330046414E340046414E3500464144
:10124E004E360046414E370046414E380046414E1E
:0A125E00390000000000000000004D
:10142E00C100014600013D00013F00013E000148A0
:04143E000001470062
:0412D7007F387E00DE
:1012DB00EF1FAC0670011E4C6018000000000000F0
:1012EB0000000000000000000000000000000000F3
:0312FB0080DE2270
:0E131F00AA06AB07EB1BAE0270011A4E60115E
:10132D00E4F539E539C3941250EC1212D705398022
:01133D00F2BD
:01133E00228C
:10135F00D2A3C2A37FBC7E021212DBD2A37F1E7E5A
:0E136F00001212DBA2A3E433FF30A3FD7E00C8
:01137D00224D
:1012A000D2A3053CE53C7002053BC2A37F067E004D
:1012B0001212DBD2A3053CE53C7002053B053CE580
:1012C0003C7002053BA2A392047F327E001212DB27
:0612D000A204E4FE33FF5E
:0112D60022F5
:1013EB00D2A3053AC2A3053AEE4F24FF92A37F3254
:0713FB007E001212DBD2A3F9
:0114020022C7
:10126800E4FBFAF539753A01F582F5831212A0EF1D
:101278004E6017AF82AE39E53AA807088005C33338
:10128800CE33CED8F92BFBEE3AFAA3E582640845B3
:071298008370D9AE02AF0321
:01129F00222C
:02133F00A907FC
:10134100E4FDA805E9088002C313D8FCFB7A005329
:0D1351000301AF037E001213EB0DBD08E594
:01135E00226C
:10137E0012135FEF4E70F97FCC12133F7FB412132E
:0E138E003FA2A392047F0A7E001212DBA2048B
:01139C00222E
:1011A7008F39E53924F6600F146011146013240396
:1011B7007012E4F539800D753901800875390280A0
:1011C7000375390312135FEF4E70F97F4E12133F09
:1011D7007FFF12133F7FFF12133FE539C43354E0FB
:0611E700441FFF02133F4C
:1011600012135FEF4E70F97FCC12133F7F441213BE
:101170003F12135FEF4E70F97FCC12133F7FBE1208
:10118000133F1212688F431212688F42EFFEE5433D
:10119000FFEE3395E0FDFC120906E4FBFA79807856
:0711A0003D120800020944A2
:10144300C280C281C2827FE87E0312131FD280D280
:0414530081D282229E
:100C930078267C007D007BFF7A1279607E007F08D6
:100CA300120A95E4F52EF52F121419121443121398
:100CB3007E7F0C1211A77F011211EDD2AFC201E4A6
:100CC300F540F541758E80758CA9758A9AD2A9D2A3
:100CD3008CD288D2A8D28AD2AAD2AF90FECCF0A36B
:100CE300F090FEC87468F0A3F0A3F0A3F0A37455CA
:100CF300F0A3F090FED27403F0A374FFF090FEB162
:100D0300E4F0E04401F0E04402F0A3E4F0E0FFA2E9
:100D130090E433FEEF4EF090FEDD7480F090FEC061
:100D2300E04401F07F011211ED7F017E0012131FD9
:100D3300D2AFE53D701720B3F91213B720B3F30513
:100D43003FE53FD3940440EAE4F53F80E5E53D64A5
:030D530001703AF2
:100D56003000DCF538E538C3954450187400253862
:100D6600F582E43400F583E0FF74302538F8A607F1
:100D7600053880E174302544F8E4F6FB7A007930D2
:080D8600120FA6E4F544C200BF
:100D8E0080A5E53DB402A01211608F258E248D231F
:100D9E008C22E47F1AFEFDFCAB25AA24A923A822EF
:100DAE00C3120AE25003E4F548E47F1AFEFDFCABE1
:100DBE0025AA24A923A822C3120AE24010E47F1B0D
:100DCE00FEFDFCA822120AE25003754801E47F1BC7
:100DDE00FEFDFCAB25AA24A923A822C3120AE240D9
:100DEE0010E47F1CFEFDFCA822120AE25003754897
:100DFE0002E47F1CFEFDFCAB25AA24A923A822C376
:100E0E00120AE24010E47F1DFEFDFCA822120AE247
:100E1E005003754803E47F1DFEFDFCAB25AA24A9F3
:100E2E0023A822C3120AE24010E47F1EFEFDFCA896
:100E3E0022120AE25003754804E47F1EFEFDFCAB4D
:100E4E0025AA24A923A822C3120AE24010E47F2D6A
:100E5E00FEFDFCA822120AE250037548057F647E4F
:070E6E000012131F020D35F5
:1014190043BA80E4F593F594F591F592F595F5962F
:05142900F5B1F5B2224F
:08139D007D32AF051DEF601168
:1013A500E4F521E521C3941250F01212D7052180EE
:0113B500F245
:0113B6002214
:0813B7007D3CAF051DEF601144
:1013BF00E4F539E539C3941250F01212D70539808C
:0113CF00F22B
:0113D00022FA
:07146200D280D281D2822268
:100FA6008B398A3A893B121462A83BAC3AAD397B3D
:100FB600FF7A12792E120C76EF7003F53E22A83BCB
:100FC600AC3AAD397BFF7A127933120C76EF7004A6
:100FD600753E0122A83BAC3AAD397BFF7A127938CF
:100FE600120C76EF7004753E0222A83BAC3AAD397E
:100FF6007BFF7A12793D120C76EF7004753E032260
:10100600A83BAC3AAD397BFF7A127942120C76EFE7
:101016007004753E0422A83BAC3AAD397BFF7A12C8
:101026007947120C76EF7004753E0522A83BAC3A60
:10103600AD397BFF7A12794C120C76EF7004753E4F
:101046000622A83BAC3AAD397BFF7A127951120CD5
:1010560076EF7004753E0722A83BAC3AAD397BFFAC
:101066007A127956120C76EF7004753E0822A83B68
:10107600AC3AAD397BFF7A12795B120C76EF7003CE
:04108600753E092288
:10140300120ABB6010F599D2022002FD740129F97A
:06141300E43AFA80EB222E
:1013D100AD07AC06538EEF538EF7438E048CD6AF18
:0A13E100058FD753AFFB438E102297
:1011ED00BF020C438E017FD07EFF1213D1801BC234
:1011FD008E538EFE438E405389BF5389CF758DFF1D
:10120D00758BD0C2AB538FFDD28EE598543F4440C1
:10121D00F598D2ACD29C53A23FC202E4F545F544F9
:01122D00229E
:03002300021116B1
:10111600C0E0C083C082C0D030982FC2987400252A
:1011260044F582E43400F583E599F074002544F52E
:1011360082E43400F583E0B42304D200800C054435
:10114600E544C394084003754400309904C299C22B
:0A11560002D0D0D082D083D0E03266
:03001B00020E755D
:100E7500C0E0C0F0C083C082C0D075D010E53D7021
:100E850033C280D282D281F53EF548E53F7004F544
:100E950040F541E53FB40106754001754155E53F13
:100EA500B402067540027541AAE53FB403067540D4
:100EB500037541FFE53D64016003020F49C281D21C
:100EC50082D280F53FF548E53E7006F540F5418054
:100ED50073E53EB401087540007541718066E53ED5
:100EE500B402087540007541E38059E53EB4030836
:100EF500754001754155804CE53EB40408754001C7
:100F05007541C6803FE53EB4050875400275413818
:100F15008032E53EB406087540027541AA8025E594
:100F25003EB4070875400375411B8018E53EB408BB
:100F35000875400375418D800BE53EB40906754083
:100F4500037541FFE53D64027049C282D281D280BA
:100F5500F53FF53EE5487004F540F541E548B40137
:100F65000675400175415EE548B402067540017598
:100F750041F4E548B4030675400275418AE548B475
:100F85000406754003754120E548B4050675400320
:100F95007541FF121457D0D0D082D083D0F0D0E065
:010FA5003219
:0B145700E54090FED5F0A3E541F02237
:030003000212FEE8
:1012FE00C0E0C0D075D00020B21212139D20B20CE7
:10130E00053DE53DC394034003753D00D0D0D0E0CC
:01131E00329C
:10080000EC4D6011E8497017ED33EC3304600DE4F2
:10081000FCFFFEFD22E933E8330470F80209B01250
:10082000097B58046009E4CC248150062850090251
:1008300009BA2840030209B7C0E0EB4A7044B98006
:1008400006D0E0FB0209A6EF4E701CBD8008EBFF4E
:10085000EAFEE9FD80EBE98DF0A4FEE5F00208E98F
:10086000E9CDF9EAFEEBFFEF89F0A4FCE5F0CE89D3
:10087000F0A42EFFE435F0CD89F0A42DFEE435F090
:100880008067EF4E7005BD80D780C3EF8BF0A4ACBE
:10089000F0EE8BF0A42CFCE435F0F8EF8AF0A42CF9
:1008A000E5F038FCE433CB8DF0A42CFCE5F03BF80C
:1008B000EE8AF0A42CFCE5F038F8E433CF89F0A4FC
:1008C0002CFCE5F038CF3400CE89F0A42FFFE5F002
:1008D0003EFEE433C98DF0A42EFEE5F039CD8AF05A
:1008E000A42FFFE5F03EFEE43DFD33D0E0FB5007D2
:1008F0000BBB000F0209BAEC2CFCEF33FFEE33FE0A
:06090000ED33FD02099237
:1009060075F020800E75F010800575F0087D007E6C
:10091600007F003392D530D503120AD4EC33401051
:10092600EF33FFEE33FEED33FDEC33FCD5F0ED2275
:0E093600E5F0247EA2D513CC92E7CDCEFF22B1
:10094400EDD2E7CD33EC3392D524814006E4FFFEAB
:10095400FDFC22FCE4CFCECDCC24E0501174FF800A
:10096400EDC3CC13CCCD13CDCE13CECF13CF0470A7
:07097400F030D5DE020AD4C9
:10097B00E9D2E7C933E833F892D5EDD2E7CD33ECC2
:07098B0033FC5002B2D5223B
:10099200EC30E7100FBF000C0EBE00080DBD0004C6
:1009A2000BEB6014A2D5EB13FCED92E7FD2274FF72
:1009B200FCFDFEFF22E480F8A2D574FF13FC7D80CB
:0309C200E480EFDF
:0300000002108A61
:0C108A00787FE4F6D8FD7581480210D193
:1009C500E709F608DFFA8046E709F208DFFA803E14
:1009D50088828C83E709F0A3DFFA8032E309F60801
:1009E500DFFA8078E309F208DFFA807088828C8369
:1009F500E309F0A3DFFA806489828A83E0A3F6081D
:100A0500DFFA805889828A83E0A3F208DFFA804CF6
:100A150080D280FA80C680D4806980F280338010CD
:100A250080A680EA809A80A880DA80E280CA803336
:100A350089828A83ECFAE493A3C8C582C8CCC583AE
:100A4500CCF0A3C8C582C8CCC583CCDFE9DEE7807E
:100A55000D89828A83E493A3F608DFF9ECFAA9F0FD
:100A6500EDFB2289828A83ECFAE0A3C8C582C8CC53
:100A7500C583CCF0A3C8C582C8CCC583CCDFEADE6C
:100A8500E880DB89828A83E493A3F208DFF980CCCE
:100A950088F0EF60010E4E60C388F0ED2402B404C7
:100AA5000050B9F582EB2402B4040050AF2323456E
:060AB5008223900A157374
:100ABB00BB010689828A83E0225002E722BBFE0239
:090ACB00E32289828A83E493226C
:0E0AD400C3E49FFFE49EFEE49DFDE49CFC2233
:100AE200EB9FF5F0EA9E42F0E99D42F0EC6480C88B
:060AF20064809845F0222B
:100AF800E3F5F009E208B5F06D606B80F3E3F5F01B
:100B080009E608B5F060605E80F387F009E608B58D
:100B1800F054605280F487F009E208B5F048604666
:100B280080F488828C8387F009E0A3B5F0386036BA
:100B380080F488828C8387F009E493A3B5F027605A
:100B48002580F388828C83E3F5F009E0A3B5F016DD
:100B5800601480F388828C83E3F5F009E493A3B5ED
:100B6800F004600280F2020C23808580E7808E808A
:100B7800D2803C8015806C807E809B80B5808B8085
:100B8800A1804F8070803A020C2F89828A83ECFA08
:100B9800E493F5F0A3C8C582C8CCC583CCE493A37D
:100BA800C8C582C8CCC583CCB5F070606E80E189B9
:100BB800828A83E493F5F0A3E208B5F05E605C8076
:100BC800F289828A83E0F5F0A3E608B5F04D604B20
:100BD80080F389828A83E0F5F0A3E208B5F03C60EF
:100BE8003A80F389828A83E493F5F0A3E608B5F0A6
:100BF8002A602880F2805389828A83ECFAE493F58C
:100C0800F0A3C8C582C8CCC583CCE0A3C8C582C838
:100C1800CCC583CCB5F004600280E27FFFB5F0025A
:100C28000F2240027F012289828A83ECFAE0F5F0E4
:100C3800A3C8C582C8CCC583CCE0A3C8C582C8CC2C
:100C4800C583CCB5F0D560D380E389828A83ECFA7A
:100C5800E0F5F0A3C8C582C8CCC583CCE493A3C88B
:100C6800C582C8CCC583CCB5F0B160AF80E288F04E
:100C7800ED2402B4040050A3F582EB2402B404006E
:0B0C880050992323458223900B7173C9
:10109600020C93E493A3F8E493A34003F68001F2D1
:1010A60008DFF48029E493A3F85407240CC8C3335B
:1010B600C4540F4420C8834004F456800146F6DF2A
:1010C600E4800B010204081020408090142EE47E78
:1010D600019360BCA3FF543F30E509541FFEE4931F
:1010E600A360010ECF54C025E060A840B8E493A3E6
:1010F600FAE493A3F8E493A3C8C582C8CAC583CA11
:10110600F0A3C8C582C8CAC583CADFE9DEE780BEC8
:0114420000A9
:00000001FF
