:0309780001080172
:1008E3001208F61208F61208F6D280C2811208F630
:0308F3001208F6F2
:0E08F60000007F2B7E067D05DDFEDEFCDFFAB6
:0109040022D0
:0A096D0000007F1B7E68DEFEDFFC49
:01097700225D
:0C096100759400759300E4F5B2F5B12226
:10093C00C2801208F6D280C2811208F6D281C2821D
:06094C001208F6D282221F
:10090500C2801208F61208F6D280C2811208F612C9
:0F09150008F6D281C2821208F61208F6D28222A8
:0F095200C2801208E3D281C2821208F0D2822240
:10092400C2801208F61208E31208F6D281C28212BB
:0809340008F01208F6D282223D
:030003000208BA36
:1008BA00C0E0C0D075D000C006C00720B21212092D
:1008CA006D20B20C0508E508D394044003750801AD
:0908DA00D007D006D0D0D0E032E6
:10088C00D288D2A8D2AF1208F6120961E508B401D9
:10089C000312093CE508B40203120905E508B40388
:0E08AC0003120952E508B404E312092480DEA9
:03000000020800F3
:0C080000787FE4F6D8FD758108020847F7
:10080C0002088CE493A3F8E493A34003F68001F26E
:10081C0008DFF48029E493A3F85407240CC8C333ED
:10082C00C4540F4420C8834004F456800146F6DFBC
:10083C00E4800B0102040810204080900978E47ECB
:10084C00019360BCA3FF543F30E509541FFEE493B1
:10085C00A360010ECF54C025E060A840B8E493A378
:10086C00FAE493A3F8E493A3C8C582C8CAC583CAA3
:10087C00F0A3C8C582C8CAC583CADFE9DEE780BE5B
:01097B00007B
:00000001FF
