:03000000020800F3
:0C080000787FE4F6D8FD758111020847EE
:0609E400011001011101E8
:1008F80012090B12090B12090BD280C28112090BC3
:0309080012090BC6
:0E090B0000007F0D7E067D01DDFEDEFCDFFAC2
:0109190022BB
:0A09C40000007F1B7E68DEFEDFFCF2
:0109CE002206
:0C09B800759400759300E4F5B2F5B122CF
:0709CF00C280D281D2822216
:0709D600D280C281D282220F
:0709DD00D280D281C2822208
:10099300C28012090BD280C28112090BD281C2829A
:0609A30012090BD28222B2
:10095C00C28012090B12090BD280C28112090B1230
:0F096C00090BD281C28212090B12090BD282220F
:0F09A900C2801208F8D281C282120905D28222BE
:10097B00C28012090B1208F812090BD281C2821223
:08098B00090512090BD28222BA
:0300030002091AD5
:10091A00C0E0C0D075D00820B2121209C420B20CAF
:10092A000510E510D394044003751001D0D0D0E02F
:01093A00328A
:0300130002093BA4
:10093B00C0E0C0D075D00820B3121209C420B30C8C
:10094B000511E511D394024003751101D0D0D0E00D
:01095B003269
:10088C00D288D28AD2A8D2AAD2AF12090B1209B836
:10089C00E51164017028E510B4010512099380F08C
:1008AC00E510B4020512095C80E6E510B4030512EC
:1008BC0009A980DCE510B404D712097B80D2E511BC
:1008CC00B402CDE510D394034003751001E510B4C8
:1008DC0001051209CF80B9E510B402051209D680C2
:0C08EC00AFE510640370A91209DD80A4C0
:10080C0002088CE493A3F8E493A34003F68001F26E
:10081C0008DFF48029E493A3F85407240CC8C333ED
:10082C00C4540F4420C8834004F456800146F6DFBC
:10083C00E4800B01020408102040809009E4E47E5F
:10084C00019360BCA3FF543F30E509541FFEE493B1
:10085C00A360010ECF54C025E060A840B8E493A378
:10086C00FAE493A3F8E493A3C8C582C8CAC583CAA3
:10087C00F0A3C8C582C8CAC583CADFE9DEE780BE5B
:0109EA00000C
:00000001FF
