:03000000020800F3
:0C080000787FE4F6D8FD758108020847F7
:03091000010801DA
:0E08DB0000007F2B7E067D32DDFEDEFCDFFAA4
:0108E90022EC
:0A08F60000007F1B7E68DEFEDFFCC1
:0109000022D4
:0C08EA00759400759300E4F5B2F5B1229E
:05090100D282C2802239
:05090600D280C2812235
:05090B00D281C282222E
:0300030002088C64
:10088C00C0E0C0D075D000C006C00720B21212085C
:10089C00F620B20C0508E508D39403400375080153
:0908AC00D007D006D0D0D0E03214
:1008B500D288D2A8D2AF1208DB1208EAE508B40143
:1008C50003120901E508B40203120906E508B40399
:0608D500EB12090B80E6A6
:10080C000208B5E493A3F8E493A34003F68001F245
:10081C0008DFF48029E493A3F85407240CC8C333ED
:10082C00C4540F4420C8834004F456800146F6DFBC
:10083C00E4800B0102040810204080900910E47E33
:10084C00019360BCA3FF543F30E509541FFEE493B1
:10085C00A360010ECF54C025E060A840B8E493A378
:10086C00FAE493A3F8E493A3C8C582C8CAC583CAA3
:10087C00F0A3C8C582C8CAC583CADFE9DEE780BE5B
:0109130000E3
:00000001FF
