:100C09005354433848384B363455205541525431A2
:100C19002C20446576656C6F706D656E7420627901
:100C2900204C65797565204368656E0D0A004C4551
:100C390044410053485554004C454442004C4544F6
:100C490052004C4544470052414C4C0052414F31EF
:100C59000052414F32005241433100524143320068
:100C690052474231005247423200524742520052E3
:100C79004742470052474242005247427200524798
:080C890042670052474262007D
:100F3200C10042000C000042000A0000420008000A
:010F420000AE
:100C9100E4F52A120E71120F7A7F01120E0AD2AFF9
:100CA1007BFF7A0C7909120F1C753A80E4FBFD7FFA
:100CB10002120EB47FC87E00120E96E4F53AFBFDD7
:0C0CC1007F02120EB47FC87E00120E9657
:100CCD003000FDE4F533E533C39508501874002565
:100CDD0033F582E43400F583E0FF742B2533F8A659
:100CED0007053380E1742B2508F8E4F6FB7A0079CB
:090CFD002B120800E4F508C20006
:020D060080C5A6
:100E710043BA80E4F593F594F591F592F595F596DD
:100E8100F5B1F5B2F5B3F5B4F5C9F5CAF5CBF5CCC5
:050E9100F5E1F5E2228D
:040F82007F06DFFE09
:010F86002248
:0F0F4400E4FFFE000FBF00010EBE04F7BF52F422
:010F5300227B
:090F7000007F207E28DEFEDFFC7C
:010F79002255
:0D0F5400007F037E707D5BDDFEDEFCDFFABA
:010F6100226D
:100E9600AD07AC06C3ED9401EC940050047C007DD4
:0E0EA60001120F70ED1D70011C144C70F4222F
:080F7A00E4F5CAF5C9020F44B9
:100F0400D2CC00000000000000000000000000003F
:080F14000000000000C2CC2225
:0E0F6200D2CC000000000000000000C2CC2233
:100D0800C2AFE4F583F582EF30E705120F048003E4
:100D1800120F62EF25E0FFA3E5826408458370E7C0
:100D2800E4F583F582ED30E705120F048003120F16
:100D380062ED25E0FDA3E5826408458370E7E4F5EC
:100D480083F582EB30E705120F048003120F62EB84
:0E0D580025E0FBA3E5826408458370E7D2AF77
:010D6600226A
:050F8700C2CC020F4482
:100D6700E4FE740C2FF582E43400F583EDF0740A89
:100D77002FF582E43400F583EBF074082FF582E455
:100D87003400F583E53EF00EBE02D7E4FE740A2E6A
:100D9700F582E43400F583E0FF740C2EF582E43429
:100DA70000F583E0FD74082EF582E43400F583E056
:080DB700FB120D080EBE02D56F
:010DBF002211
:100E4B007D167C00E4FBFAC3EB9FEA9E50179000E3
:100E5B0000C3E5829DE5839C500400A380F30BBB8C
:050E6B0000010A80E215
:010E7000225F
:100EB4008F378D38A903120F877F1E7E00120E4BC9
:0C0EC400AB01853A3EAD38AF37020D6738
:100ED000D280D281D282E4F53AFBFD7F01120EB4BA
:0A0EE000E4F53AFBFD7F02020EB4B8
:100800008B348A358936120ED0A836AC35AD347BA0
:10081000FF7A0C7937120B60EF7007C280C281C279
:100820008222A836AC35AD347BFF7A0C793C120BB2
:1008300060EF7003020ED0A836AC35AD347BFF7A82
:100840000C7941120B60EF7007C280D281D28222F4
:10085000A836AC35AD347BFF7A0C7946120B60EFCD
:100860007007D280C281D28222A836AC35AD347BEB
:10087000FF7A0C794B120B60EF7007D280D281C2E5
:100880008222A836AC35AD347BFF7A0C7950120B3E
:1008900060EF700E753AFF7BFF7DFFFF120EB40212
:1008A0000923A836AC35AD347BFF7A0C7955120B91
:1008B00060EF70028054A836AC35AD347BFF7A0C03
:1008C000795A120B60EF70028059A836AC35AD34FE
:1008D0007BFF7A0C795F120B60EF7005F53A020925
:1008E00071A836AC35AD347BFF7A0C7964120B609D
:1008F000EF7005F53A0209C1A836AC35AD347BFF7F
:100900007A0C7969120B60EF7007753AFF7BFF80F4
:100910002EA836AC35AD347BFF7A0C796E120B60A5
:10092000EF7007753AFF7BFF8061A836AC35AD34B8
:100930007BFF7A0C7973120B60EF7007F53AFB7D41
:10094000FF8030A836AC35AD347BFF7A0C79781255
:100950000B60EF7007F53A7BFFFD8017A836AC35CA
:10096000AD347BFF7A0C797D120B60EF7008753A1D
:10097000FFFBFDFF804FA836AC35AD347BFF7A0C12
:100980007982120B60EF7009F53AFB7DFF7F0180E1
:1009900034A836AC35AD347BFF7A0C7987120B6006
:1009A000EF7009F53A7BFFFD7F018019A836AC3561
:1009B000AD347BFF7A0C798C120B60EF700A753ABC
:0909C000FFFBFD7F01120EB422C1
:100F1C001209C96010F599D2012001FD740129F95B
:060F2C00E43AFA80EB221A
:100EEA00AD07AC06538EEF538EF7438E048CD6AF04
:0A0EFA00058FD753AFFB438E102283
:100E0A00BF020C438E017FD07EFF120EEA801BC206
:100E1A008E538EFE438E405389BF5389CF758DFF03
:100E2A00758BD0C2AB538FFDD28EE598543F4440A8
:100E3A00F598D2ACD29C53A23FC201E4F509F50859
:010E4A002285
:03002300020DC00B
:100DC000C0E0C083C082C0D030982FC29874002584
:100DD00008F582E43400F583E599F074002508F500
:100DE00082E43400F583E0B42304D200800C0508CB
:100DF000E508C394084003750800309904C299C2FD
:0A0E000001D0D0D082D083D0E032C0
:03000000020B7D73
:0C0B7D00787FE4F6D8FD75813E020BC4C1
:1009C900BB010689828A83E0225002E722BBFE022C
:0909D900E32289828A83E493225F
:1009E200E3F5F009E208B5F06D606B80F3E3F5F032
:1009F20009E608B5F060605E80F387F009E608B5A5
:100A0200F054605280F487F009E208B5F04860467D
:100A120080F488828C8387F009E0A3B5F0386036D1
:100A220080F488828C8387F009E493A3B5F0276071
:100A32002580F388828C83E3F5F009E0A3B5F016F4
:100A4200601480F388828C83E3F5F009E493A3B504
:100A5200F004600280F2020B0D808580E7808E80B8
:100A6200D2803C8015806C807E809B80B5808B809C
:100A7200A1804F8070803A020B1989828A83ECFA36
:100A8200E493F5F0A3C8C582C8CCC583CCE493A394
:100A9200C8C582C8CCC583CCB5F070606E80E189D0
:100AA200828A83E493F5F0A3E208B5F05E605C808D
:100AB200F289828A83E0F5F0A3E608B5F04D604B37
:100AC20080F389828A83E0F5F0A3E208B5F03C6006
:100AD2003A80F389828A83E493F5F0A3E608B5F0BD
:100AE2002A602880F2805389828A83ECFAE493F5A3
:100AF200F0A3C8C582C8CCC583CCE0A3C8C582C850
:100B0200CCC583CCB5F004600280E27FFFB5F00271
:100B12000F2240027F012289828A83ECFAE0F5F0FB
:100B2200A3C8C582C8CCC583CCE0A3C8C582C8CC43
:100B3200C583CCB5F0D560D380E389828A83ECFA91
:100B4200E0F5F0A3C8C582C8CCC583CCE493A3C8A2
:100B5200C582C8CCC583CCB5F0B160AF80E288F065
:100B6200ED2402B4040050A3F582EB2402B4040085
:0B0B720050992323458223900A5B73F7
:100B8900020C91E493A3F8E493A34003F68001F2E5
:100B990008DFF48029E493A3F85407240CC8C3336D
:100BA900C4540F4420C8834004F456800146F6DF3C
:100BB900E4800B0102040810204080900F32E47E8B
:100BC900019360BCA3FF543F30E509541FFEE49331
:100BD900A360010ECF54C025E060A840B8E493A3F8
:100BE900FAE493A3F8E493A3C8C582C8CAC583CA23
:100BF900F0A3C8C582C8CAC583CADFE9DEE780BEDB
:010F430000AD
:00000001FF
