:100AE5005354433848314B32382055415254312CF8
:100AF50020646576656C6F706D656E742062792013
:100B05004C65797565204368656E2E0D0A004C4568
:100B150044410053485554004C454442004C45441B
:0C0B250052004C45444700524742520029
:0E0BD90000007F2B7E067D05DDFEDEFCDFFAD0
:010BE70022EB
:070BF400D280D281D28222DF
:100A5E0043BA8075933075943075913075923075B8
:100A6E00953C75963C75B15075B25075B33C75B4E6
:100A7E003C75C90C75CA0C75CBFF75CCFFE4F5E15E
:100A8E00F5E27F01120B31D2AF7BFF7A0A79E512C4
:020A9E000BC388
:100AA000E511651060FA2000F7E4F50C7400250CE0
:100AB000F582E43400F583E0FF7408250CF8A607FE
:100AC000050CE50CB404E5E4F50CFB7A007908129A
:100AD00009B4850899D2000511E511C3940440C0FA
:030AE000E4F51129
:020AE30080BBD6
:1009B4008B0D8A0E890F120BF4A80FAC0EAD0D7BB4
:1009C400FF7A0B7913120997EF7007C280C281C2B4
:1009D4008222A80FAC0EAD0D7BFF7A0B7918120999
:1009E40097EF7003020BF4A80FAC0EAD0D7BFF7AEA
:1009F4000B791D120997EF7007C280D281D282222F
:100A0400A80FAC0EAD0D7BFF7A0B7922120997EF7C
:100A14007007D280C281D28222A80FAC0EAD0D7BAA
:100A2400FF7A0B7927120997EF7007D280D281C21F
:100A34008222A80FAC0EAD0D7BFF7A0B792C120924
:100A440097EF7015C280120BD9D280C281120BD9D4
:0A0A5400D281C282120BD9D2822295
:100BC3001208006010F599D2002000FD740129F984
:060BD300E43AFA80EB2277
:100BA900AD07AC06538EEF538EF7438E048CD6AF48
:0A0BB900058FD753AFFB438E1022C7
:100B3100BF020C438E017FD07EFF120BA9801BC226
:100B41008E538EFE438E405389BF5389CF758DFFDF
:100B5100758BD0C2AB538FFDD28EE598543F444084
:100B6100F598D2ACD29C53A23FC200E4F511F51026
:010B71002261
:03002300020B725B
:100B7200C0E0C083C082C0D030981CC298740025E7
:100B820010F582E43400F583E599F00510E510C311
:100B920094044003751000309904C299C200D0D069
:070BA200D082D083D0E032C5
:03000000020BE808
:0C0BE800787FE4F6D8FD758120020A5EDB
:10080000BB010689828A83E0225002E722BBFE02F6
:09081000E32289828A83E4932229
:10081900E3F5F009E208B5F06D606B80F3E3F5F0FC
:1008290009E608B5F060605E80F387F009E608B56F
:10083900F054605280F487F009E208B5F048604648
:1008490080F488828C8387F009E0A3B5F03860369C
:1008590080F488828C8387F009E493A3B5F027603C
:100869002580F388828C83E3F5F009E0A3B5F016BF
:10087900601480F388828C83E3F5F009E493A3B5CF
:10088900F004600280F2020944808580E7808E804E
:10089900D2803C8015806C807E809B80B5808B8067
:1008A900A1804F8070803A02095089828A83ECFACC
:1008B900E493F5F0A3C8C582C8CCC583CCE493A35F
:1008C900C8C582C8CCC583CCB5F070606E80E1899B
:1008D900828A83E493F5F0A3E208B5F05E605C8058
:1008E900F289828A83E0F5F0A3E608B5F04D604B02
:1008F90080F389828A83E0F5F0A3E208B5F03C60D1
:100909003A80F389828A83E493F5F0A3E608B5F087
:100919002A602880F2805389828A83ECFAE493F56D
:10092900F0A3C8C582C8CCC583CCE0A3C8C582C81A
:10093900CCC583CCB5F004600280E27FFFB5F0023C
:100949000F2240027F012289828A83ECFAE0F5F0C6
:10095900A3C8C582C8CCC583CCE0A3C8C582C8CC0E
:10096900C583CCB5F0D560D380E389828A83ECFA5C
:10097900E0F5F0A3C8C582C8CCC583CCE493A3C86D
:10098900C582C8CCC583CCB5F0B160AF80E288F030
:10099900ED2402B4040050A3F582EB2402B4040050
:0B09A90050992323458223900892738D
:00000001FF
