:100E3F005354433848384B3634552055415254316A
:100E4F002C20446576656C6F706D656E74206279C9
:100E5F00204C65797565204368656E0D0A005374E3
:100E6F00617274210D0A004C45444100534855549A
:100E7F00004C454442004C454452004C4544470009
:100E8F0046414E300046414E310046414E320046FB
:100E9F00414E330046414E340046414E35004641E7
:100EAF004E360046414E370046414E380046414EC1
:0A0EBF0039000000000000000000F0
:08104A00C100012B01012C0083
:100C0B0078097C007D007BFF7A0E79C17E007F081E
:100C1B001208D0E4F511F512120F857F01120F1394
:100C2B00D2AF7BFF7A0E793F121029C201E4F52176
:100C3B00F522752301F524752502F526752704F594
:100C4B00287BFF7A0E796D121029758E80758CA911
:100C5B00758A9AD2A9D28CD288D2A8D2AF90FECC68
:100C6B00E4F0A3F090FEC87468F0A3F0A3F0A3F037
:100C7B00A37455F0A3F090FED27403F0A374FFF0AD
:100C8B0090FEB1E4F0E04401F0E04402F0A3E4F0A4
:100C9B00E0FFA290E433FEEF4EF090FEDD7480F0A7
:100CAB0090FEC0E04401F0C2C07F01120F137F0120
:050CBB007E00120FAAEB
:100CC0003000FDE4F51BE51BC39529501874002581
:100CD0001BF582E43400F583E0FF7413251BF8A6AE
:100CE00007051B80E174132529F8E4F6FB7A0079E7
:090CF00013120AAAE4F529C2005E
:020CF90080C5B4
:100F850043BA80E4F593F594F591F592F595F596C8
:100F9500F5B1F5B2F5B3F5B4F5C9F5CAF5CBF5CCB0
:050FA500F5E1F5E22278
:100FCE00EF1FAC0670011E4C601800000000000000
:100FDE000000000000000000000000000000000003
:030FEE0080DE2280
:0E0FAA00AA06AB07EB1BAE0270011A4E6015D3
:100FB800E4F51CE51CC3941250EC7F387E00120F38
:050FC800CE051C80EEC7
:010FCD002201
:080FF1007D14AF051DEF601532
:100FF900E4F508E508C3941250F07F387E00120F1B
:05100900CE050880EE99
:01100E0022BF
:07105300D280D281D282227B
:100AAA008B1C8A1D891E121053A81EAC1DAD1C7BFF
:100ABA00FF7A0E7976120A8DEF7008C280C281C25F
:100ACA00828063A81EAC1DAD1C7BFF7A0E797B1257
:100ADA000A8DEF7005121053804CA81EAC1DAD1C78
:100AEA007BFF7A0E7980120A8DEF7008C280D2815C
:100AFA00D2828032A81EAC1DAD1C7BFF7A0E79858E
:100B0A00120A8DEF7008D280C281D2828018A81E84
:100B1A00AC1DAD1C7BFF7A0E798A120A8DEF700626
:100B2A00D280D281C282A81EAC1DAD1C7BFF7A0E78
:100B3A00798F120A8DEF7003F52C22A81EAC1DAD19
:100B4A001C7BFF7A0E7994120A8DEF7004752C01C2
:100B5A0022A81EAC1DAD1C7BFF7A0E7999120A8D54
:100B6A00EF7004752C0222A81EAC1DAD1C7BFF7A07
:100B7A000E799E120A8DEF7004752C0322A81EAC02
:100B8A001DAD1C7BFF7A0E79A3120A8DEF700475D6
:100B9A002C0422A81EAC1DAD1C7BFF7A0E79A8126C
:100BAA000A8DEF7004752C0522A81EAC1DAD1C7BA6
:100BBA00FF7A0E79AD120A8DEF7004752C0622A801
:100BCA001EAC1DAD1C7BFF7A0E79B2120A8DEF7036
:100BDA0004752C0722A81EAC1DAD1C7BFF7A0E796A
:100BEA00B7120A8DEF7004752C0822A81EAC1DAD31
:100BFA001C7BFF7A0E79BC120A8DEF7003752C09E3
:010C0A0022C7
:101029001208F66010F599D2022002FD740129F91F
:06103900E43AFA80EB220C
:10100F00AD07AC06538EEF538EF7438E048CD6AFDD
:0A101F00058FD753AFFB438E10225C
:100F1300BF020C438E017FD07EFF12100F801BC2D5
:100F23008E538EFE438E405389BF5389CF758DFFF9
:100F3300758BD0C2AB538FFDD28EE598543F44409E
:100F4300F598D2ACD29C53A23FC202E4F52AF5290C
:010F5300227B
:03002300020EC901
:100EC900C0E0C083C082C0D030982FC2987400257A
:100ED90029F582E43400F583E599F074002529F5B4
:100EE90082E43400F583E0B42304D200800C0529A0
:100EF900E529C394084003752900309904C299C2B1
:0A0F090002D0D0D082D083D0E032B5
:03001B00020CFBD9
:100CFB00C0E0C0F0C083C082C0D075D000C000C0BF
:100D0B0001C002C003C004C005C006C007E52C70BB
:100D1B0006F521F5228073E52CB4010875210075C9
:100D2B0022718066E52CB402087521007522E380E0
:100D3B0059E52CB40308752101752255804CE52C1F
:100D4B00B404087521017522C6803FE52CB4050853
:100D5B007521027522388032E52CB4060875210204
:100D6B007522AA8025E52CB4070875210375221B73
:100D7B008018E52CB4080875210375228D800BE5CE
:100D8B002CB409067521037522FF12103FD007D032
:100D9B0006D005D004D003D002D001D000D0D0D0E3
:080DAB0082D083D0F0D0E032C9
:0B103F00E52190FED5F0A3E522F02291
:03000300020F5495
:100F5400C0E0C0D075D000C004C005C006C00720E2
:100F6400B212120FF120B20C052BE52BD3940440DE
:100F740003752B01D007D006D005D004D0D0D0E023
:010F8400323A
:03000000020DB33B
:0C0DB300787FE4F6D8FD75812C020DFA63
:10080000E709F608DFFA8046E709F208DFFA803EDA
:1008100088828C83E709F0A3DFFA8032E309F608C7
:10082000DFFA8078E309F208DFFA807088828C832F
:10083000E309F0A3DFFA806489828A83E0A3F608E3
:10084000DFFA805889828A83E0A3F208DFFA804CBD
:1008500080D280FA80C680D4806980F28033801094
:1008600080A680EA809A80A880DA80E280CA8033FD
:1008700089828A83ECFAE493A3C8C582C8CCC58375
:10088000CCF0A3C8C582C8CCC583CCDFE9DEE78045
:100890000D89828A83E493A3F608DFF9ECFAA9F0C4
:1008A000EDFB2289828A83ECFAE0A3C8C582C8CC1A
:1008B000C583CCF0A3C8C582C8CCC583CCDFEADE33
:1008C000E880DB89828A83E493A3F208DFF980CC95
:1008D00088F0EF60010E4E60C388F0ED2402B4048E
:1008E0000050B9F582EB2402B4040050AF23234535
:0608F00082239008507302
:1008F600BB010689828A83E0225002E722BBFE0200
:09090600E32289828A83E4932232
:10090F00E3F5F009E208B5F06D606B80F3E3F5F005
:10091F0009E608B5F060605E80F387F009E608B578
:10092F00F054605280F487F009E208B5F048604651
:10093F0080F488828C8387F009E0A3B5F0386036A5
:10094F0080F488828C8387F009E493A3B5F0276045
:10095F002580F388828C83E3F5F009E0A3B5F016C8
:10096F00601480F388828C83E3F5F009E493A3B5D8
:10097F00F004600280F2020A3A808580E7808E8060
:10098F00D2803C8015806C807E809B80B5808B8070
:10099F00A1804F8070803A020A4689828A83ECFADE
:1009AF00E493F5F0A3C8C582C8CCC583CCE493A368
:1009BF00C8C582C8CCC583CCB5F070606E80E189A4
:1009CF00828A83E493F5F0A3E208B5F05E605C8061
:1009DF00F289828A83E0F5F0A3E608B5F04D604B0B
:1009EF0080F389828A83E0F5F0A3E208B5F03C60DA
:1009FF003A80F389828A83E493F5F0A3E608B5F091
:100A0F002A602880F2805389828A83ECFAE493F576
:100A1F00F0A3C8C582C8CCC583CCE0A3C8C582C823
:100A2F00CCC583CCB5F004600280E27FFFB5F00245
:100A3F000F2240027F012289828A83ECFAE0F5F0CF
:100A4F00A3C8C582C8CCC583CCE0A3C8C582C8CC17
:100A5F00C583CCB5F0D560D380E389828A83ECFA65
:100A6F00E0F5F0A3C8C582C8CCC583CCE493A3C876
:100A7F00C582C8CCC583CCB5F0B160AF80E288F039
:100A8F00ED2402B4040050A3F582EB2402B4040059
:0B0A9F0050992323458223900988739F
:100DBF00020C0BE493A3F8E493A34003F68001F233
:100DCF0008DFF48029E493A3F85407240CC8C33335
:100DDF00C4540F4420C8834004F456800146F6DF04
:100DEF00E4800B010204081020408090104AE47E3A
:100DFF00019360BCA3FF543F30E509541FFEE493F9
:100E0F00A360010ECF54C025E060A840B8E493A3BF
:100E1F00FAE493A3F8E493A3C8C582C8CAC583CAEA
:100E2F00F0A3C8C582C8CAC583CADFE9DEE780BEA2
:01105200009D
:00000001FF
