:030A1800011001C9
:0E09E40000007F2B7E067D32DDFEDEFCDFFA9A
:0109F20022E2
:0A09F30000007F1B7E68DEFEDFFCC3
:0109FD0022D7
:050A0900D282C2802230
:050A0E00D280C281222C
:050A1300D281C2822225
:1008000043BA807593307594307591307592307518
:10081000953C75963CE4F5B1F5B275B33C75B43CC6
:1008200075C90C75CA0C75CBFF75CCFFF5E1F5E207
:10083000C200C201C202C203F508F509750A01F53A
:100840000B750C02F50D750E04F50F758E80758C09
:10085000A9758A9AD2A9D28CD288D2A8D2AF90FE9A
:10086000CCF0A3F090FEC87468F0A3F0A3F0A3F05E
:10087000A37455F0A3F090FED27403F0A374FFF0BC
:1008800090FEB1E4F0E04401F0E04402F0E0440402
:10089000F0E04408F0E04410F0E04420F0E0444090
:1008A000F0E04480F0A3E4F0E0FFA290E433FEEF38
:1008B0004EF090FEDD7480F090FEC0E04401F0C286
:0508C000C0D2AF80FE74
:03000B0002095196
:10095100C0E0C0F0C083C082C0D075D000C000C06C
:1009610001C002C003C004C005C006C007E510B441
:100971000106750800750900E510B4020675080145
:10098100750955E510B403067508027509ABE51044
:10099100B404067508037509FF1209FED007D006D5
:1009A100D005D004D003D002D001D000D0D0D08265
:0709B100D083D0F0D0E0324A
:0B09FE00E50890FED5F0A3E509F0220B
:030003000209B837
:1009B800C0E0C0D075D000C006C00720B21512092B
:1009C800F31209F320B20C0510E510D39404400388
:0C09D800751001D007D006D0D0D0E0325E
:030000000208C52E
:0C08C500787FE4F6D8FD75812002090C54
:1008D100020800E493A3F8E493A34003F68001F235
:1008E10008DFF48029E493A3F85407240CC8C33328
:1008F100C4540F4420C8834004F456800146F6DFF7
:10090100E4800B0102040810204080900A18E47E64
:10091100019360BCA3FF543F30E509541FFEE493EB
:10092100A360010ECF54C025E060A840B8E493A3B2
:10093100FAE493A3F8E493A3C8C582C8CAC583CADD
:10094100F0A3C8C582C8CAC583CADFE9DEE780BE95
:010A1B0000DA
:00000001FF
